{
  "contractName": "ChinoCrowdSale",
  "abi": [
    {
      "constant": true,
      "inputs": [],
      "name": "hasClosed",
      "outputs": [
        {
          "name": "",
          "type": "bool"
        }
      ],
      "payable": false,
      "stateMutability": "view",
      "type": "function"
    },
    {
      "constant": true,
      "inputs": [],
      "name": "rate",
      "outputs": [
        {
          "name": "",
          "type": "uint256"
        }
      ],
      "payable": false,
      "stateMutability": "view",
      "type": "function"
    },
    {
      "constant": true,
      "inputs": [],
      "name": "cap",
      "outputs": [
        {
          "name": "",
          "type": "uint256"
        }
      ],
      "payable": false,
      "stateMutability": "view",
      "type": "function"
    },
    {
      "constant": true,
      "inputs": [],
      "name": "weiRaised",
      "outputs": [
        {
          "name": "",
          "type": "uint256"
        }
      ],
      "payable": false,
      "stateMutability": "view",
      "type": "function"
    },
    {
      "constant": true,
      "inputs": [],
      "name": "isOpen",
      "outputs": [
        {
          "name": "",
          "type": "bool"
        }
      ],
      "payable": false,
      "stateMutability": "view",
      "type": "function"
    },
    {
      "constant": true,
      "inputs": [],
      "name": "closingTime",
      "outputs": [
        {
          "name": "",
          "type": "uint256"
        }
      ],
      "payable": false,
      "stateMutability": "view",
      "type": "function"
    },
    {
      "constant": true,
      "inputs": [],
      "name": "capReached",
      "outputs": [
        {
          "name": "",
          "type": "bool"
        }
      ],
      "payable": false,
      "stateMutability": "view",
      "type": "function"
    },
    {
      "constant": true,
      "inputs": [],
      "name": "wallet",
      "outputs": [
        {
          "name": "",
          "type": "address"
        }
      ],
      "payable": false,
      "stateMutability": "view",
      "type": "function"
    },
    {
      "constant": true,
      "inputs": [],
      "name": "openingTime",
      "outputs": [
        {
          "name": "",
          "type": "uint256"
        }
      ],
      "payable": false,
      "stateMutability": "view",
      "type": "function"
    },
    {
      "constant": false,
      "inputs": [
        {
          "name": "beneficiary",
          "type": "address"
        }
      ],
      "name": "buyTokens",
      "outputs": [],
      "payable": true,
      "stateMutability": "payable",
      "type": "function"
    },
    {
      "constant": true,
      "inputs": [],
      "name": "token",
      "outputs": [
        {
          "name": "",
          "type": "address"
        }
      ],
      "payable": false,
      "stateMutability": "view",
      "type": "function"
    },
    {
      "inputs": [
        {
          "name": "rate",
          "type": "uint256"
        },
        {
          "name": "wallet",
          "type": "address"
        },
        {
          "name": "token",
          "type": "address"
        },
        {
          "name": "openingTime",
          "type": "uint256"
        },
        {
          "name": "closingTime",
          "type": "uint256"
        },
        {
          "name": "cap",
          "type": "uint256"
        }
      ],
      "payable": false,
      "stateMutability": "nonpayable",
      "type": "constructor"
    },
    {
      "payable": true,
      "stateMutability": "payable",
      "type": "fallback"
    },
    {
      "anonymous": false,
      "inputs": [
        {
          "indexed": true,
          "name": "purchaser",
          "type": "address"
        },
        {
          "indexed": true,
          "name": "beneficiary",
          "type": "address"
        },
        {
          "indexed": false,
          "name": "value",
          "type": "uint256"
        },
        {
          "indexed": false,
          "name": "amount",
          "type": "uint256"
        }
      ],
      "name": "TokensPurchased",
      "type": "event"
    }
  ],
  "bytecode": "0x608060405234801561001057600080fd5b5060405160c0806109aa833981018060405281019080805190602001909291908051906020019092919080519060200190929190805190602001909291908051906020019092919080519060200190929190505050808383888888600160008190555060008311151561008257600080fd5b600073ffffffffffffffffffffffffffffffffffffffff168273ffffffffffffffffffffffffffffffffffffffff16141515156100be57600080fd5b600073ffffffffffffffffffffffffffffffffffffffff168173ffffffffffffffffffffffffffffffffffffffff16141515156100fa57600080fd5b8260038190555081600260006101000a81548173ffffffffffffffffffffffffffffffffffffffff021916908373ffffffffffffffffffffffffffffffffffffffff16021790555080600160006101000a81548173ffffffffffffffffffffffffffffffffffffffff021916908373ffffffffffffffffffffffffffffffffffffffff16021790555050505042821015151561019557600080fd5b81811115156101a357600080fd5b816005819055508060068190555050506000811115156101c257600080fd5b80600781905550505050505050506107cb806101df6000396000f3006080604052600436106100af576000357c0100000000000000000000000000000000000000000000000000000000900463ffffffff1680631515bc2b146100ba5780632c4e722e146100e9578063355274ea146101145780634042b66f1461013f57806347535d7b1461016a5780634b6753bc146101995780634f935945146101c4578063521eb273146101f3578063b7a8807c1461024a578063ec8ac4d814610275578063fc0c546a146102ab575b6100b833610302565b005b3480156100c657600080fd5b506100cf6103f8565b604051808215151515815260200191505060405180910390f35b3480156100f557600080fd5b506100fe610404565b6040518082815260200191505060405180910390f35b34801561012057600080fd5b5061012961040e565b6040518082815260200191505060405180910390f35b34801561014b57600080fd5b50610154610418565b6040518082815260200191505060405180910390f35b34801561017657600080fd5b5061017f610422565b604051808215151515815260200191505060405180910390f35b3480156101a557600080fd5b506101ae61043d565b6040518082815260200191505060405180910390f35b3480156101d057600080fd5b506101d9610447565b604051808215151515815260200191505060405180910390f35b3480156101ff57600080fd5b5061020861045b565b604051808273ffffffffffffffffffffffffffffffffffffffff1673ffffffffffffffffffffffffffffffffffffffff16815260200191505060405180910390f35b34801561025657600080fd5b5061025f610485565b6040518082815260200191505060405180910390f35b6102a9600480360381019080803573ffffffffffffffffffffffffffffffffffffffff169060200190929190505050610302565b005b3480156102b757600080fd5b506102c061048f565b604051808273ffffffffffffffffffffffffffffffffffffffff1673ffffffffffffffffffffffffffffffffffffffff16815260200191505060405180910390f35b600080600060016000808282540192505081905550600054905034925061032984846104b9565b610332836104f1565b91506103498360045461050f90919063ffffffff16565b6004819055506103598483610530565b8373ffffffffffffffffffffffffffffffffffffffff163373ffffffffffffffffffffffffffffffffffffffff167f6faf93231a456e552dbc9961f58d9713ee4f2e69d15f1975b050ef0911053a7b8585604051808381526020018281526020019250505060405180910390a36103d0848461053e565b6103d8610542565b6103e284846105ad565b600054811415156103f257600080fd5b50505050565b60006006544211905090565b6000600354905090565b6000600754905090565b6000600454905090565b6000600554421015801561043857506006544211155b905090565b6000600654905090565b6000600754610454610418565b1015905090565b6000600260009054906101000a900473ffffffffffffffffffffffffffffffffffffffff16905090565b6000600554905090565b6000600160009054906101000a900473ffffffffffffffffffffffffffffffffffffffff16905090565b6104c382826105b1565b6007546104e0826104d2610418565b61050f90919063ffffffff16565b111515156104ed57600080fd5b5050565b6000610508600354836105d290919063ffffffff16565b9050919050565b600080828401905083811015151561052657600080fd5b8091505092915050565b61053a8282610610565b5050565b5050565b600260009054906101000a900473ffffffffffffffffffffffffffffffffffffffff1673ffffffffffffffffffffffffffffffffffffffff166108fc349081150290604051600060405180830381858888f193505050501580156105aa573d6000803e3d6000fd5b50565b5050565b6105b9610422565b15156105c457600080fd5b6105ce8282610661565b5050565b60008060008414156105e75760009150610609565b82840290508284828115156105f857fe5b0414151561060557600080fd5b8091505b5092915050565b61065d8282600160009054906101000a900473ffffffffffffffffffffffffffffffffffffffff1673ffffffffffffffffffffffffffffffffffffffff166106b19092919063ffffffff16565b5050565b600073ffffffffffffffffffffffffffffffffffffffff168273ffffffffffffffffffffffffffffffffffffffff161415151561069d57600080fd5b600081141515156106ad57600080fd5b5050565b8273ffffffffffffffffffffffffffffffffffffffff1663a9059cbb83836040518363ffffffff167c0100000000000000000000000000000000000000000000000000000000028152600401808373ffffffffffffffffffffffffffffffffffffffff1673ffffffffffffffffffffffffffffffffffffffff16815260200182815260200192505050602060405180830381600087803b15801561075457600080fd5b505af1158015610768573d6000803e3d6000fd5b505050506040513d602081101561077e57600080fd5b8101908080519060200190929190505050151561079a57600080fd5b5050505600a165627a7a72305820249dff1ad7df4b3795fa730bc701645b29814ddcf1c0fc4a0aa11f411190f8ac0029",
  "source": "pragma solidity ^0.4.22;\n\nimport \"../node_modules/openzeppelin-solidity/contracts/token/ERC20/ERC20.sol\";\nimport \"../node_modules/openzeppelin-solidity/contracts/crowdsale/Crowdsale.sol\";\nimport \"../node_modules/openzeppelin-solidity/contracts/crowdsale/validation/TimedCrowdsale.sol\";\nimport \"../node_modules/openzeppelin-solidity/contracts/crowdsale/validation/CappedCrowdsale.sol\";\n\n\n\ncontract ChinoCrowdSale is TimedCrowdsale, CappedCrowdsale {\n  \n  constructor(uint256 rate, \n              address wallet, \n              IERC20 token, \n              uint256 openingTime, \n              uint256 closingTime, \n              uint256 cap) \n              \n              public \n              \n              Crowdsale(rate, wallet, token)\n              CappedCrowdsale(cap)\n              TimedCrowdsale(openingTime, closingTime) \n    {\n      //require(goal <= cap);\n  }\n\n}\n\n\n",
  "sourcePath": "/Users/sherone/Desktop/BLOCKCHAIN+ETHEREUM/SOLIDITY LEARNING THINGS/ChinoCoin/contracts/ChinoCrowdSale.sol",
  "compiler": {
    "name": "solc",
    "version": "0.4.24+commit.e67f0147.Emscripten.clang"
  },
  "schemaVersion": "2.0.1",
  "updatedAt": "2018-12-10T23:31:13.161Z"
}